:020000040800F2
:100000000050002065060008ED050008F505000811
:10001000FD050008050600080D06000800000000A8
:1000200000000000000000000000000015060008AD
:1000300021060008000000002D060008390600080F
:10004000AD060008AD060008AD060008AD060008C4
:10005000AD060008AD060008AD060008AD060008B4
:10006000AD060008AD060008AD060008AD060008A4
:10007000AD060008AD060008AD060008AD06000894
:10008000AD060008AD060008AD060008AD06000884
:10009000AD06000845060008AD060008AD060008DC
:1000A000AD060008AD060008AD060008AD06000864
:1000B000AD060008AD060008AD060008AD06000854
:1000C000AD060008AD060008AD060008AD06000844
:1000D000AD060008AD060008AD060008AD06000834
:1000E000AD060008AD060008AD06000800000000DF
:1000F0000000000000000000000000000000000000
:0C01000000000000000000005FF808F1A3
:10010C0010B5054C237833B9044B13B10448AFF345
:10011C0000800123237010BD0C00002000000000A3
:10012C006C23000808B5034B1BB103490348AFF31C
:10013C00008008BD00000000100000206C230008A7
:10014C0080B582B000AF00F0ADFA00F04DF800F0D1
:10015C0031F900F085F800F0D5F81E4800F0ECFC01
:10016C003C211D4801F052FF1C4B04221A611B4B11
:10017C0000225A60194B00229A60184B0022DA6058
:10018C00164B4FF480721A60144B00221A75124BE6
:10019C001B685B6A7B607B681B0EDAB2104B1A70B3
:1001AC007B681B14DAB20E4B5A707B681B12DAB2E6
:1001BC000B4B9A707B68DAB2094BDA70094B084A20
:1001CC000649044800F0FCFC0A2000F0CDFA00BF00
:1001DC00DDE700BF28000020500000209800002020
:1001EC00B4000020B000002080B590B000AF07F143
:1001FC00180328220021184602F086F83B1D002225
:10020C001A605A609A60DA601A610223BB6101239A
:10021C00BB621023FB6200237B6307F118031846B3
:10022C0001F074FA0346002B01D000F00DF90F23F6
:10023C007B600023BB600023FB6000233B61002339
:10024C007B613B1D0021184601F0E2FC0346002BAC
:10025C0001D000F0F9F800BF4037BD4680BD00006A
:10026C0080B58AB000AF254B254A1A60234B122269
:10027C005A60224B00229A60204B0022DA601F4BFE
:10028C004FF480321A611D4B00225A611B4B002225
:10029C001A761A4B00225A76184B00229A76174B74
:1002AC000122DA76154B00221A77144B00225A776A
:1002BC00124800F07DFA0346002B01D000F0C4F880
:1002CC0000237B610023BB610123FB6100233B60A6
:1002DC0000237B600023BB600023FB6001233B6198
:1002EC0001233B620D237B623B461946034800F019
:1002FC005AFB00BF2837BD4680BD00BF2800002038
:10030C000064004080B58CB000AF07F10C032422D0
:10031C000021184601F0F8FF3B1D00221A605A60BC
:10032C00224B234A1A60214B00225A601F4B002299
:10033C009A601E4B4FF6FF72DA601C4B00221A615A
:10034C001A4B00225A61194B00229A610323FB605D
:10035C0000233B6101237B610023BB610023FB6114
:10036C0000233B6201237B620023BB620023FB6200
:10037C0007F10C0319460D4801F0A6FD0346002BAE
:10038C0001D000F061F800237B600023BB603B1DB3
:10039C001946064801F05AFF0346002B01D000F025
:1003AC0053F800BF3037BD4680BD00BF5000002061
:1003BC00002C014080B588B000AF07F1100300227B
:1003CC001A605A609A60DA601D4B9B691C4A43F0B4
:1003DC00200393611A4B9B6903F02003FB60FB68BD
:1003EC00174B9B69164A43F008039361144B9B69A6
:1003FC0003F00803BB60BB68114B9B69104A43F0C8
:10040C00040393610E4B9B6903F004037B607B68D0
:10041C00002204210B4801F061F904233B61012304
:10042C007B610023BB610223FB6107F110031946BA
:10043C00044800F0CFFF00BF2037BD4680BD00BF91
:10044C0000100240000C014080B400AF72B600BF37
:10045C0000BFFDE780B485B000AF154B9B69144A13
:10046C0043F001039361124B9B6903F00103BB60E2
:10047C00BB680F4BDB690E4A43F08053D3610C4BC6
:10048C00DB6903F080537B607B680A4B5B68FB6025
:10049C00FB6823F0E063FB60FB6843F00073FB60D8
:1004AC00044AFB68536000BF1437BD4680BC7047DC
:1004BC00001002400000014080B588B000AF7860A9
:1004CC0007F1100300221A605A609A60DA607B68A8
:1004DC001B68204A934239D11F4BDB691E4A43F0FB
:1004EC000073D3611C4BDB6903F00073FB60FB688A
:1004FC00194B9B69184A43F004039361164B9B6993
:10050C0003F00403BB60BB684FF400633B61002342
:10051C007B610023BB6107F1100319460F4800F003
:10052C0059FF4FF480533B6102237B610323FB6132
:10053C0007F110031946094800F04CFF0022002176
:10054C00152000F010FF152000F029FF00BF203708
:10055C00BD4680BD00640040001002400008014010
:10056C0080B588B000AF786007F1100300221A60E4
:10057C005A609A60DA607B681B68164A934224D1F1
:10058C00154B9B69144A43F400639361124B9B69AE
:10059C0003F40063FB60FB680F4B9B690E4A43F04E
:1005AC00040393610C4B9B6903F00403BB60BB68B1
:1005BC004FF440733B6100237B610023BB6107F167
:1005CC0010031946054800F005FF00BF2037BD4653
:1005DC0080BD00BF002C014000100240000801400B
:1005EC0080B400AF00BFFDE780B400AF00BFFDE7F3
:1005FC0080B400AF00BFFDE780B400AF00BFFDE7E3
:10060C0080B400AF00BFFDE780B400AF00BFBD46B3
:10061C0080BC704780B400AF00BFBD4680BC704743
:10062C0080B400AF00BFBD4680BC704780B500AF42
:10063C0000F07EF800BF80BD80B500AF024800F02E
:10064C008EFB00BF80BD00BF2800002080B400AF2F
:10065C0000BFBD4680BC7047FFF7F8FF0B480C4944
:10066C000C4A002302E0D458C4500433C4188C4202
:10067C00F9D3094A094C002301E013600432A24269
:10068C00FBD301F049FEFFF75BFD70470000002033
:10069C000C000020B02300080C000020C00000203B
:1006AC00FEE7000080B500AF084B1B68074A43F01B
:1006BC0010031360032000F04BFE0F2000F008F82D
:1006CC00FFF7C8FE0023184680BD00BF0020024083
:1006DC0080B582B000AF7860124B1A68124B1B7851
:1006EC0019464FF47A73B3FBF1F3B2FBF3F31846EC
:1006FC0000F063FE0346002B01D001230EE07B6863
:10070C000F2B0AD8002279684FF0FF3000F02BFE37
:10071C00064A7B681360002300E001231846083763
:10072C00BD4680BD00000020080000200400002011
:10073C0080B400AF054B1B781A46054B1B6813445D
:10074C00034A136000BFBD4680BC70470800002000
:10075C00BC00002080B400AF024B1B681846BD469D
:10076C0080BC7047BC00002080B584B000AF7860BE
:10077C00FFF7F0FFB8607B68FB60FB68B3F1FF3FED
:10078C0005D00A4B1B781A46FB681344FB6000BF6C
:10079C00FFF7E0FF0246BB68D31AFA689A42F7D813
:1007AC0000BF00BF1037BD4680BD00BF0800002051
:1007BC0080B584B000AF78607B68002B01D1012339
:1007CC00EDE07B6893F82030DBB2002B02D1786827
:1007DC00FFF772FE7B681B681A687B681B6842F027
:1007EC0001021A60FFF7B6FFF86012E0FFF7B2FFE4
:1007FC000246FB68D31A0A2B0BD97B685B6A43F45D
:10080C0000327B685A627B68052283F82020012322
:10081C00C5E07B681B685B6803F00103002BE5D027
:10082C007B681B681A687B681B6822F002021A60DE
:10083C00FFF790FFF86012E0FFF78CFF0246FB68B1
:10084C00D31A0A2B0BD97B685B6A43F400327B68A2
:10085C005A627B68052283F8202001239FE07B6885
:10086C001B685B6803F00203002BE5D17B681B7EE1
:10087C00012B08D17B681B681A687B681B6842F0E7
:10088C0080021A6007E07B681B681A687B681B682B
:10089C0022F080021A607B685B7E012B08D17B689A
:1008AC001B681A687B681B6842F040021A6007E0FC
:1008BC007B681B681A687B681B6822F040021A6010
:1008CC007B689B7E012B08D17B681B681A687B6850
:1008DC001B6842F020021A6007E07B681B681A68EC
:1008EC007B681B6822F020021A607B68DB7E012B80
:1008FC0008D17B681B681A687B681B6822F01002A1
:10090C001A6007E07B681B681A687B681B6842F0FA
:10091C0010021A607B681B7F012B08D17B681B6857
:10092C001A687B681B6842F008021A6007E07B6853
:10093C001B681A687B681B6822F008021A607B68C7
:10094C005B7F012B08D17B681B681A687B681B686E
:10095C0042F004021A6007E07B681B681A687B6827
:10096C001B6822F004021A607B689A687B68DB685B
:10097C001A437B681B691A437B685B6942EA030173
:10098C007B685B685A1E7B681B680A43DA617B686C
:10099C0000225A627B68012283F82020002318462B
:1009AC001037BD4680BD80B487B000AF7860396029
:1009BC007B681B687B617B6893F82030FB74FB7C45
:1009CC00012B03D0FB7C022B40F0AA807B69D3F86F
:1009DC00003243F001027B69C3F800223B685B697B
:1009EC0003F01F03012202FA03F3FB607B69D3F8C7
:1009FC001C22FB68DB431A407B69C3F81C223B6852
:100A0C00DB69002B23D17B69D3F80C22FB68DB4319
:100A1C001A407B69C3F80C223B68DB6819043B68FD
:100A2C005B689BB23A68526919437B69483243F858
:100A3C0032103B689B6819043B681B689AB23B6890
:100A4C005B690A4379694833DB000B445A603B68A5
:100A5C00DB69012B22D17B69D3F80C22FB681A438A
:100A6C007B69C3F80C223B681B6819043B685B6804
:100A7C009BB23A68526919437B69483243F8321089
:100A8C003B689B6819043B68DB689AB23B685B69FE
:100A9C000A4379694833DB000B445A603B689B6915
:100AAC00002B09D17B69D3F80422FB68DB431A4085
:100ABC007B69C3F8042207E07B69D3F80422FB6846
:100ACC001A437B69C3F804223B681B69002B09D1CC
:100ADC007B69D3F81422FB68DB431A407B69C3F8AB
:100AEC00142207E07B69D3F81422FB681A437B6954
:100AFC00C3F814223B681B6A012B07D17B69D3F81E
:100B0C001C22FB681A437B69C3F81C227B69D3F84F
:100B1C00003223F001027B69C3F80022002306E0B7
:100B2C007B685B6A43F480227B685A620123184617
:100B3C001C37BD4680BC704780B584B000AF786070
:100B4C007B6893F82030DBB2012B2ED17B6802221C
:100B5C0083F820207B681B681A687B681B6822F06E
:100B6C0001021A60FFF7F6FDF86012E0FFF7F2FDE4
:100B7C000246FB68D31A0A2B0BD97B685B6A43F4D9
:100B8C0000327B685A627B68052283F8202001239F
:100B9C0012E07B681B685B6803F00103002BE5D156
:100BAC007B6800225A62002306E07B685B6A43F490
:100BBC0000227B685A62012318461037BD4680BD5F
:100BCC0080B489B000AFF860B9607A603B60FB68B4
:100BDC0093F82030FB77FB681B689B68BB61FB7F3D
:100BEC00012B03D0FB7F022B40F0AD80BB6903F0DF
:100BFC008063002B0AD1BB6903F00063002B05D185
:100C0C00BB6903F08053002B00F09580BB691B0E71
:100C1C0003F003037B6101227B699A403B681A60F5
:100C2C00BB689B68002B0DD1BB681B685A05BB6861
:100C3C00DB68F96809681A437B6918331B010B449C
:100C4C001A600FE0BB685B68DA00BB689B681A43EC
:100C5C00BB68DB68F96809681A437B6918331B01A8
:100C6C000B441A60FB681968BB681A697B691833F6
:100C7C001B010B4404331A60BB681B7D012B11D183
:100C8C00FB681A687B6918331B01134404331B6817
:100C9C00FA68116843F480727B6918331B010B44AA
:100CAC0004331A607B6807331B781A067B6806339B
:100CBC001B781B041A437B6805331B781B021343F8
:100CCC007A68043212781046FA68116843EA000216
:100CDC007B691B010B4403F5C6731A607B680333F5
:100CEC001B781A067B6802331B781B041A437B683B
:100CFC0001331B781B0213437A6812781046FA688A
:100D0C00116843EA00027B691B010B4403F5C473B1
:100D1C001A60FB681A687B6918331B0113441B6843
:100D2C00FA68116843F001027B6918331B010B440C
:100D3C001A6000230EE0FB685B6A43F40012FB6848
:100D4C005A62012306E0FB685B6A43F48022FB686D
:100D5C005A62012318462437BD4680BC704780B5C3
:100D6C008AB000AF786000237B627B681B685B698C
:100D7C003B627B681B685B68FB617B681B689B68DC
:100D8C00BB617B681B68DB687B617B681B681B69CC
:100D9C003B617B681B689B69FB603B6A03F001034A
:100DAC00002B7CD0BB6903F00103002B23D07B68A4
:100DBC001B6801229A60BB6903F00203002B03D06D
:100DCC00786800F083F916E0BB6903F00403002B8C
:100DDC0004D07B6A43F400637B620CE0BB6903F0D4
:100DEC000803002B04D07B6A43F480537B6202E03F
:100DFC00786800F086F9BB6903F48073002B24D06B
:100E0C007B681B684FF480729A60BB6903F40073B3
:100E1C00002B03D0786800F062F916E0BB6903F48C
:100E2C008063002B04D07B6A43F400537B620CE09C
:100E3C00BB6903F40063002B04D07B6A43F480434A
:100E4C007B6202E0786800F065F9BB6903F48033DB
:100E5C00002B24D07B681B684FF480329A60BB69EE
:100E6C0003F40033002B03D0786800F041F916E04E
:100E7C00BB6903F48023002B04D07B6A43F400434A
:100E8C007B620CE0BB6903F40023002B04D07B6A6B
:100E9C0043F480337B6202E0786800F044F93B6AEB
:100EAC0003F00803002B0CD07B6903F01003002B1C
:100EBC0007D07B6A43F400737B627B681B6810224B
:100ECC00DA603B6A03F00403002B0BD07B6903F060
:100EDC000803002B06D07B681B680822DA60786850
:100EEC0000F033F93B6A03F00203002B09D07B6856
:100EFC001B68DB6803F00303002B02D0786800F05A
:100F0C001BF93B6A03F04003002B0CD03B6903F048
:100F1C001003002B07D07B6A43F480637B627B68F1
:100F2C001B6810221A613B6A03F02003002B0BD0C4
:100F3C003B6903F00803002B06D07B681B68082272
:100F4C001A61786800F013F93B6A03F01003002B68
:100F5C0009D07B681B681B6903F00303002B02D0CC
:100F6C00786800F0FBF83B6A03F40033002B0BD0DD
:100F7C00FB6903F01003002B06D07B681B68102262
:100F8C005A60786800F0FCF83B6A03F48033002B5D
:100F9C000BD0FB6903F00803002B06D07B681B68A1
:100FAC0008225A60786800F0F4F83B6A03F40043B6
:100FBC00002B7BD0FB6903F00403002B72D03B6A3F
:100FCC0003F48073002B08D0FB6803F00103002BA3
:100FDC0003D07B6A43F001037B623B6A03F400732A
:100FEC00002B08D0FB6803F00203002B03D07B6AB4
:100FFC0043F002037B623B6A03F48063002B08D04E
:10100C00FB6803F00403002B03D07B6A43F004035A
:10101C007B623B6A03F40063002B43D0FB6803F054
:10102C007003002B3ED0FB6803F07003602B2BD0B9
:10103C00602B2ED8502B22D0502B2AD8402B19D0D5
:10104C00402B26D8302B10D0302B22D8102B02D08E
:10105C00202B05D01DE07B6A43F008037B6219E06E
:10106C007B6A43F010037B6214E07B6A43F020033D
:10107C007B620FE07B6A43F040037B620AE07B6A91
:10108C0043F080037B6205E07B6A43F480737B62F0
:10109C0000E000BF7B681B689A697B681B6822F0C4
:1010AC0070029A617B681B6804225A607B6A002B71
:1010BC0008D07B685A6A7B6A1A437B685A627868E4
:1010CC0000F070F800BF2837BD4680BD80B483B0F7
:1010DC0000AF786000BF0C37BD4680BC704780B451
:1010EC0083B000AF786000BF0C37BD4680BC704742
:1010FC0080B483B000AF786000BF0C37BD4680BCB5
:10110C00704780B483B000AF786000BF0C37BD4629
:10111C0080BC704780B483B000AF786000BF0C37E0
:10112C00BD4680BC704780B483B000AF786000BF10
:10113C000C37BD4680BC704780B483B000AF78607C
:10114C0000BF0C37BD4680BC704780B483B000AF85
:10115C00786000BF0C37BD4680BC704780B483B04C
:10116C0000AF786000BF0C37BD4680BC704780B4C0
:10117C0083B000AF786000BF0C37BD4680BC7047B1
:10118C0080B483B000AF786000BF0C37BD4680BC24
:10119C00704780B483B000AF786000BF0C37BD4699
:1011AC0080BC704780B483B000AF786000BF0C3750
:1011BC00BD4680BC7047000080B485B000AF78603D
:1011CC007B6803F00703FB600C4BDB68BB60BA6801
:1011DC004FF6FF031340BB60FB681A02BB68134356
:1011EC0043F0BF6343F40033BB60044ABB68D36075
:1011FC0000BF1437BD4680BC704700BF00ED00E057
:10120C0080B400AF044BDB681B0A03F007031846DD
:10121C00BD4680BC704700BF00ED00E080B483B0D9
:10122C0000AF0346FB7197F90730002B0BDBFB7902
:10123C0003F01F02064997F907305B09012000FAF9
:10124C0002F241F8232000BF0C37BD4680BC70472A
:10125C0000E100E080B483B000AF03463960FB715D
:10126C0097F90730002B0ADB3B68DAB20C4997F987
:10127C0007301201D2B20B4483F800230AE03B681A
:10128C00DAB20849FB7903F00F03043B1201D2B226
:10129C000B441A7600BF0C37BD4680BC704700BFAC
:1012AC0000E100E000ED00E080B489B000AFF86030
:1012BC00B9607A60FB6803F00703FB61FB69C3F15B
:1012CC000703042B28BF0423BB61FB690433062BE3
:1012DC0002D9FB69033B00E000237B614FF0FF3236
:1012EC00BB6902FA03F3DA43BB681A407B699A4084
:1012FC004FF0FF317B6901FA03F3D9437B680B4054
:10130C00134318462437BD4680BC704780B582B065
:10131C0000AF78607B68013BB3F1807F01D3012380
:10132C000FE00A4A7B68013B53600F214FF0FF30FE
:10133C00FFF790FF054B00229A60044B07221A60BE
:10134C00002318460837BD4680BD00BF10E000E002
:10135C0080B582B000AF78607868FFF72DFF00BFD2
:10136C000837BD4680BD80B586B000AF0346B96076
:10137C007A60FB7300237B61FFF742FF78617A6828
:10138C00B9687869FFF790FF024697F90F3011465C
:10139C001846FFF75FFF00BF1837BD4680BD80B50C
:1013AC0082B000AF0346FB7197F907301846FFF780
:1013BC0035FF00BF0837BD4680BD80B582B000AF99
:1013CC0078607868FFF7A2FF034618460837BD46D9
:1013DC0080BD000080B48BB000AF78603960002312
:1013EC007B6200233B6269E101227B6A02FA03F310
:1013FC00FB613B681B68FA691340BB61BA69FB6906
:10140C009A4240F058813B685B689A4A93425ED09E
:10141C00984A934275D8984A934258D0964A934228
:10142C006FD8964A934252D0944A934269D8944AC0
:10143C0093424CD0924A934263D8924A934246D0FC
:10144C00904A93425DD8122B2AD8122B59D801A25C
:10145C0052F823F0DB140008B5140008C714000878
:10146C00091500080F1500080F1500080F150008C6
:10147C000F1500080F1500080F1500080F150008B0
:10148C000F1500080F1500080F1500080F150008A0
:10149C000F1500080F150008BD140008D114000822
:1014AC00794A934213D02CE03B68DB683B6229E01D
:1014BC003B68DB6804333B6224E03B68DB68083341
:1014CC003B621FE03B68DB680C333B621AE03B6815
:1014DC009B68002B02D104233B6213E03B689B68A2
:1014EC00012B05D108233B627B68FA691A6109E07C
:1014FC0008233B627B68FA695A6103E000233B6274
:10150C0000E000BFBB69FF2B01D87B6801E07B6862
:10151C0004337B61BB69FF2B02D87B6A9B0002E022
:10152C007B6A083B9B003B617B691A680F213B6916
:10153C0001FA03F3DB431A40396A3B6901FA03F3FE
:10154C001A437B691A603B685B6803F08053002B7D
:10155C0000F0B1804D4B9B694C4A43F00103936101
:10156C004A4B9B6903F00103BB60BB68484A7B6A2A
:10157C009B08023352F82330FB607B6A03F00303B1
:10158C009B000F2202FA03F3DB43FA681340FB6063
:10159C007B68404A934213D07B683F4A93420DD0FC
:1015AC007B683E4A934207D07B683D4A934201D107
:1015BC00032306E0042304E0022302E0012300E0FD
:1015CC0000237A6A02F0030292009340FA681343F4
:1015DC00FB602F497B6A9B080233FA6841F8232091
:1015EC003B685B6803F48013002B06D02D4B9A6884
:1015FC002C49BB6913438B6006E02A4B9A68BB6984
:10160C00DB43284913408B603B685B6803F4001391
:10161C00002B06D0234BDA682249BB691343CB60FD
:10162C0006E0204BDA68BB69DB431E491340CB60F4
:10163C003B685B6803F40033002B06D0194B5A68E7
:10164C001849BB6913434B6006E0164B5A68BB69DB
:10165C00DB43144913404B603B685B6803F48033F5
:10166C00002B21D00F4B1A680E49BB6913430B603A
:10167C0021E000BF000032100000311000002210E9
:10168C000000211000001210000011100010024088
:10169C000000014000080140000C01400010014016
:1016AC0000140140000401400B4B1A68BB69DB437A
:1016BC00094913400B607B6A01337B623B681A68F3
:1016CC007B6A22FA03F3002B7FF48EAE00BF00BFBF
:1016DC002C37BD4680BC70470004014080B483B0F9
:1016EC0000AF78600B467B8013467B707B78002BB9
:1016FC0003D07A887B681A6103E07B881A047B68C4
:10170C001A6100BF0C37BD4680BC704780B586B0EF
:10171C0000AF78607B68002B01D1012372E27B68FB
:10172C001B6803F00103002B00F08780924B5B6871
:10173C0003F00C03042B0CD08F4B5B6803F00C03F1
:10174C00082B12D18C4B5B6803F48033B3F5803FCC
:10175C000BD1894B1B6803F40033002B6CD07B68D6
:10176C005B68002B68D101234CE27B685B68B3F5A6
:10177C00803F06D1804B1B687F4A43F48033136053
:10178C002EE07B685B68002B0CD17B4B1B687A4A84
:10179C0023F480331360784B1B68774A23F480233F
:1017AC0013601DE07B685B68B3F5A02F0CD1724B06
:1017BC001B68714A43F4802313606F4B1B686E4A9D
:1017CC0043F4803313600BE06B4B1B686A4A23F4C1
:1017DC0080331360684B1B68674A23F480231360C3
:1017EC007B685B68002B13D0FEF7B4FF386108E010
:1017FC00FEF7B0FF02463B69D31A642B01D90323D1
:10180C0000E25D4B1B6803F40033002BF0D014E0B6
:10181C00FEF7A0FF386108E0FEF79CFF02463B692B
:10182C00D31A642B01D90323ECE1534B1B6803F44B
:10183C000033002BF0D100E000BF7B681B6803F085
:10184C000203002B63D04C4B5B6803F00C03002BA2
:10185C000BD0494B5B6803F00C03082B1CD1464B97
:10186C005B6803F48033002B16D1434B1B6803F0E9
:10187C000203002B05D07B681B69012B01D00123CF
:10188C00C0E13D4B1B6823F0F8027B685B69DB0011
:10189C00394913430B603AE07B681B69002B20D05D
:1018AC00364B01221A60FEF755FF386108E0FEF74F
:1018BC0051FF02463B69D31A022B01D90323A1E144
:1018CC002D4B1B6803F00203002BF0D02A4B1B6836
:1018DC0023F0F8027B685B69DB00274913430B603C
:1018EC0015E0264B00221A60FEF734FF386108E041
:1018FC00FEF730FF02463B69D31A022B01D90323B2
:10190C0080E11D4B1B6803F00203002BF0D17B68B8
:10191C001B6803F00803002B3AD07B689B69002BF3
:10192C0019D0174B01221A60FEF714FF386108E03A
:10193C00FEF710FF02463B69D31A022B01D9032391
:10194C0060E10D4B5B6A03F00203002BF0D0012029
:10195C0000F09CFA1CE00A4B00221A60FEF7FAFE1B
:10196C0038610FE0FEF7F6FE02463B69D31A022BF4
:10197C0008D9032346E100BF001002400000424298
:10198C0080044242924B5B6A03F00203002BE9D1C4
:10199C007B681B6803F00403002B00F0A680002377
:1019AC00FB758B4BDB6903F08053002B0DD1884BFF
:1019BC00DB69874A43F08053D361854BDB6903F0C5
:1019CC008053BB60BB680123FB75824B1B6803F41F
:1019DC008073002B18D17F4B1B687E4A43F48073B5
:1019EC001360FEF7B7FE386108E0FEF7B3FE02465F
:1019FC003B69D31A642B01D9032303E1754B1B6894
:101A0C0003F48073002BF0D07B68DB68012B06D1CC
:101A1C006F4B1B6A6E4A43F0010313622DE07B6827
:101A2C00DB68002B0CD16A4B1B6A694A23F001035B
:101A3C001362674B1B6A664A23F0040313621CE0B3
:101A4C007B68DB68052B0CD1614B1B6A604A43F049
:101A5C00040313625E4B1B6A5D4A43F0010313627D
:101A6C000BE05B4B1B6A5A4A23F001031362584B81
:101A7C001B6A574A23F0040313627B68DB68002B54
:101A8C0015D0FEF767FE38610AE0FEF763FE0246EA
:101A9C003B69D31A41F28832934201D90323B1E056
:101AAC004B4B1B6A03F00203002BEED014E0FEF745
:101ABC0051FE38610AE0FEF74DFE02463B69D31A2F
:101ACC0041F28832934201D903239BE0404B1B6ABD
:101ADC0003F00203002BEED1FB7D012B05D13C4B17
:101AEC00DB693B4A23F08053D3617B68DB69002BB5
:101AFC0000F08780364B5B6803F00C03082B61D039
:101B0C007B68DB69022B46D1334B00221A60FEF74F
:101B1C0021FE386108E0FEF71DFE02463B69D31A30
:101B2C00022B01D903236DE0294B1B6803F00073D2
:101B3C00002BF0D17B681B6AB3F5803F08D1244B96
:101B4C005B6823F400327B689B68214913434B602C
:101B5C001F4B5B6823F474127B68196A7B685B6AA1
:101B6C000B431B4913434B601B4B01221A60FEF7BE
:101B7C00F1FD386108E0FEF7EDFD02463B69D31A32
:101B8C00022B01D903233DE0114B1B6803F00073BA
:101B9C00002BF0D035E0104B00221A60FEF7DAFD76
:101BAC00386108E0FEF7D6FD02463B69D31A022BDA
:101BBC0001D9032326E0064B1B6803F00073002BAE
:101BCC00F0D11EE07B68DB69012B07D1012319E002
:101BDC000010024000700040600042420B4B5B68FA
:101BEC00FB60FB6803F480327B681B6A9A4206D167
:101BFC00FB6803F470127B685B6A9A4201D0012384
:101C0C0000E0002318461837BD4680BD0010024086
:101C1C0080B584B000AF786039607B68002B01D14F
:101C2C000123D0E06A4B1B6803F007033A689A4221
:101C3C0010D9674B1B6823F0070265493B681343B7
:101C4C000B60634B1B6803F007033A689A4201D0A0
:101C5C000123B8E07B681B6803F00203002B20D043
:101C6C007B681B6803F00403002B05D0594B5B68A1
:101C7C00584A43F4E06353607B681B6803F0080325
:101C8C00002B05D0534B5B68524A43F460535360AE
:101C9C00504B5B6823F0F0027B689B684D49134303
:101CAC004B607B681B6803F00103002B40D07B6802
:101CBC005B68012B07D1474B1B6803F40033002BE7
:101CCC0015D101237FE07B685B68022B07D1414B68
:101CDC001B6803F00073002B09D1012373E03D4B0B
:101CEC001B6803F00203002B01D101236BE0394B7D
:101CFC005B6823F003027B685B68364913434B60D7
:101D0C00FEF728FDF8600AE0FEF724FD0246FB68AA
:101D1C00D31A41F28832934201D9032353E02D4B5D
:101D2C005B6803F00C027B685B689B009A42EBD10A
:101D3C00274B1B6803F007033A689A4210D2244BD6
:101D4C001B6823F0070222493B6813430B60204BAE
:101D5C001B6803F007033A689A4201D0012332E072
:101D6C007B681B6803F00403002B08D0194B5B68DD
:101D7C0023F4E0627B68DB68164913434B607B6895
:101D8C001B6803F00803002B09D0124B5B6823F48B
:101D9C0060527B681B69DB000E4913434B6000F0FB
:101DAC0021F802460B4B5B681B0903F00F030A4931
:101DBC00CB5C22FA03F3094A1360094B1B681846E3
:101DCC00FEF786FC002318461037BD4680BD00BFC9
:101DDC000020024000100240842300080000002074
:101DEC000400002080B487B000AF0023FB60002308
:101DFC00BB6000237B6100237B6000233B611E4B97
:101E0C005B68FB60FB6803F00C03042B02D0082B0F
:101E1C0003D027E0194B3B6127E0FB689B0C03F0D8
:101E2C000F03174AD35C7B60FB6803F48033002BF1
:101E3C0010D0114B5B685B0C03F00103114AD35CAF
:101E4C00BB607B680D4A03FB02F2BB68B2FBF3F389
:101E5C007B6104E07B680C4A02FB03F37B617B69CA
:101E6C003B6102E0054B3B6100BF3B6918461C37E8
:101E7C00BD4680BC704700BF0010024000127A00C3
:101E8C0094230008A423000800093D0080B485B009
:101E9C0000AF78600A4B1B680A4AA2FB03235B0A5B
:101EAC007A6802FB03F3FB6000BFFB685A1EFA6002
:101EBC00002BF9D100BF00BF1437BD4680BC704762
:101ECC0000000020D34D621080B586B000AF786062
:101EDC0039607B68002B01D1012393E07B6893F878
:101EEC003D30DBB2002B06D17B68002283F83C200E
:101EFC007868FEF735FB7B68022283F83D207B680F
:101F0C001B689B687A68126823F4804323F00703EC
:101F1C0093607B681A687B6804331946104600F09E
:101F2C0003F97B681B689B687B617B681B689B69FA
:101F3C003B617B681B681B6AFB603B681B687A69AA
:101F4C0013437B613B6923F4407323F003033B6130
:101F5C003B689A683B689B691B0213433A691343BD
:101F6C003B613B6923F4406323F00C033B613B6909
:101F7C0023F4704323F0F0033B613B68DA683B6861
:101F8C00DB691B0213433A6913433B613B681B69D2
:101F9C001A013B681B6A1B0313433A6913433B61E9
:101FAC00FB6823F02203FB603B685A683B685B6963
:101FBC001B011343FA681343FB607B681B687A6947
:101FCC009A607B681B683A699A617B681B68FA683F
:101FDC001A627B68012283F846207B68012283F811
:101FEC003E207B68012283F83F207B68012283F826
:101FFC0042207B68012283F843207B68012283F80E
:10200C003D20002318461837BD4680BD80B584B0EE
:10201C0000AF786039607B6893F83E30FB737B6867
:10202C0093F83F30BB737B6893F842307B737B68CB
:10203C0093F843303B733B68002B10D1FB7B012B97
:10204C0002D17B7B012B01D0012369E07B6802224A
:10205C0083F83E207B68022283F8422031E03B6803
:10206C00042B10D1BB7B012B02D13B7B012B01D06C
:10207C00012355E07B68022283F83F207B68022213
:10208C0083F843201DE0FB7B012B08D1BB7B012B8C
:10209C0005D17B7B012B02D13B7B012B01D0012392
:1020AC003EE07B68022283F83E207B68022283F8A4
:1020BC003F207B68022283F842207B68022283F84F
:1020CC0043203B68002B03D03B68042B08D00FE067
:1020DC007B681B6801220021184600F093F816E07B
:1020EC007B681B6801220421184600F08BF80EE077
:1020FC007B681B6801220021184600F083F87B687E
:10210C001B6801220421184600F07CF800BF7B6894
:10211C001B681A687B681B6842F001021A60002376
:10212C0018461037BD4680BD80B485B000AF7860CE
:10213C0039607B681B68FB607B682F4A93420BD02D
:10214C007B68B3F1804F07D07B682C4A934203D055
:10215C007B682B4A934208D1FB6823F07003FB6029
:10216C003B685B68FA681343FB607B68224A9342C6
:10217C000BD07B68B3F1804F07D07B681F4A93422A
:10218C0003D07B681E4A934208D1FB6823F440734A
:10219C00FB603B68DB68FA681343FB60FB6823F069
:1021AC0080023B685B691343FB607B68FA681A60CA
:1021BC003B689A687B68DA623B681A687B689A624B
:1021CC007B680D4A934203D13B681A697B681A639A
:1021DC007B6801225A617B681B6903F00103002BA9
:1021EC0005D07B681B6923F001027B681A6100BF74
:1021FC001437BD4680BC7047002C014000040040E1
:10220C000008004080B487B000AFF860B9607A6015
:10221C00BB6803F01F03012202FA03F37B61FB6826
:10222C001A6A7B69DB431A40FB681A62FB681A6AFC
:10223C00BB6803F01F03796801FA03F31A43FB68C8
:10224C001A6200BF1C37BD4680BC704780B485B095
:10225C0000AF786039607B6893F83C30012B01D17A
:10226C00022346E07B68012283F83C207B68022233
:10227C0083F83D207B681B685B68FB607B681B6890
:10228C009B68BB60FB6823F07003FB603B681B68BA
:10229C00FA681343FB607B681B68FA685A607B68BA
:1022AC001B68164A93420ED07B681B68B3F1804FB3
:1022BC0009D07B681B68124A934204D07B681B6868
:1022CC00104A93420CD1BB6823F08003BB603B687F
:1022DC005B68BA681343BB607B681B68BA689A601A
:1022EC007B68012283F83D207B68002283F83C2028
:1022FC00002318461437BD4680BC7047002C0140A3
:10230C00000400400008004003460244934200D100
:10231C00704703F8011BF9E770B500260C4D0D4C06
:10232C00641BA410A64209D100F01AF800260A4D2D
:10233C000A4C641BA410A64205D170BD55F8043B91
:10234C0098470136EEE755F8043B98470136F2E71B
:10235C00A8230008A8230008A8230008AC23000821
:10236C00F8B500BFF8BC08BC9E467047F8B500BF76
:08237C00F8BC08BC9E46704746
:102384000000000000000000010203040607080921
:1023940002030405060708090A0B0C0D0E0F1010A2
:0423A4000102000032
:0423A80031010008F7
:0423AC000D01000817
:0C23B00000127A00100000000100000084
:040000050800066584
:00000001FF
